:040000000DEF00F010
:040008000EEF01F006
:10001800FF0030EF01F0800E8F6E8E50E00B800AEB
:10002800D8A419EF00F01BEF00F011EF00F0000E5C
:10003800916E010E3701006F000EBA6F000EBB6F94
:10004800000EB86F000EB96F000EBE6F000EBF6FC6
:10005800000EBC6F000EBD6F000EA26F000EA36FE6
:10006800000EA06F000EA16F000EA66F000EA76F06
:10007800000EA46F000EA56F000EAA6F000EAB6FE6
:10008800000EA86F000EA96F000EAE6F000EAF6FC6
:10009800000EAC6F000EAD6F000EB26F000EB36FA6
:1000A800000EB06F000EB16F000EB66F000EB76F86
:1000B800000EB46F000EB56F130E036FBF0E046F02
:1000C800070E056FB60E016E020E026E54EC01F0BB
:1000D8003901A59D958D000E8F6E6F0038FE03F0D7
:1000E800E00E0316D8A47BEF00F07DEF00F071EF6F
:1000F80000F0120049EC01F0D28E3701E0B787EF2B
:1001080000F089EF00F09AEF00F0000EE36F000EA8
:10011800E46F000EE16F000EE26F030EE56F020E52
:10012800E66F000EE76F010EE86FE087E7EC00F07E
:100138000009D8B4A2EF00F0A4EF00F09AEF00F0A5
:10014800BCB6A9EF00F0ACEF00F0010EADEF00F087
:10015800000EFF0A046E044604460446BC50041808
:10016800F70B0418BC6E9AEF00F00DEF00F0000ECC
:10017800BA6E000EBB6E000EBC6EC268FB0EC36E7C
:10018800F70EC46EF70E3A01606FF70E506F4069B4
:10019800000E816F000E516F000E416F000E616FEF
:1001A800000E426F000E526F000E626F4369536972
:1001B8006369446954696469080E846F340E0A6F70
:1001C8000B0EED6F1200000E016E80AEEEEF00F028
:1001D800F0EF00F0F1EF00F0012A3701F0AFF7EF90
:1001E80000F0F9EF00F0FAEF00F0012A01501200D8
:1001F800000E3901C06F000EC16F000EC26F000EF5
:10020800C36F000EC46F000EC56F000EC66F000EE0
:10021800C76F1200390195AD14EF01F016EF01F028
:100228001FEF01F0A5AD1BEF01F01DEF01F01FEF6F
:1002380001F020EC01F0110002D82DEF01F00500CB
:10024800FA6E0550FD6E0650FE6EF850FF6EFA50BD
:1002580012003901A59D1200066A056A080ED56EBE
:10026800000ED66E000ED76E000EF86E00017EEFFF
:1002780000F0600E3901D96F000EDB6F000EDD6FE4
:10028800080EDF6F000EDE6F120059EC01F0FCEC77
:1002980000F0BBEC00F03DEC01F00FEC00F01200B8
:1002A80001C005F002C006F01200D29A1200120036
:020000040020DA
:10000000FF0FFF0FFF0FFF0FFF0FFF0FFF0FFF0F80
:020000040030CA
:0A0000008AFFF7FF9FFFFFFFFFFFDD
:00000001FF
